:10352000B701B0FF9381017F3721B0FF130101FF85
:10353000130581002320A1002322010023249100F0
:103540002326010013051000930501001306000057
:10355000EF0080006F005057130101F0232E110E71
:10356000232C810E232A910E2328210F2326310F8D
:103570002324410F2322510F2320610F232E710D8D
:10358000232C810D232A910D2328A10D2326B10D73
:10359000130320007320037C130310001313230173
:1035A0000F00F00F7320037C130320007330037CA3
:1035B0000F00F00F13031000131383010F00F00F1F
:1035C0007320037C93878186138701CF6376F74648
:1035D000938687FF6368D70023AA07FE23A807FE08
:1035E000938607009387C6FF6364F70023AC06FE4B
:1035F00093870181138681853306F640B7F5000075
:10360000135626409385055213850181EF0010471C
:1036100037340100938441899305045213068000D6
:1036200013854189EF0090459305045413850402E6
:1036300013062008EF0090449305847413858422B8
:1036400013068000EF00904393058476138584244D
:1036500013062008EF009042B706B2FF83A7861436
:1036600013F7F70393D7670093F7F7032384E186F3
:103670002382F1863707B3FF8327871493858186DA
:1036800013F5F70393D767001386418693F7F70383
:10369000A380A500A300F60003A6861423A20600BB
:1036A0009357660093F7F7031376F6031316460055
:1036B0009397A700B3E7C70093D7470023A4F6006A
:1036C0003716B2FF232206002324F600B725B2FFE7
:1036D0001308400023A6058123A8058023AAF580AE
:1036E000B725000093850509232EB6802328068080
:1036F000232AF680032687142322070093576600A7
:1037000093F7F7031376F603131646009397A70073
:10371000B3E7C70093D747002324F7003716B3FF5A
:10372000232206002324F6003725B3FF2326058134
:1037300023280580232AF580232EB680232806809F
:10374000232AF68083A5862003A686221385C188B6
:1037500083A8462083A7062003A8C6222320B500FD
:10376000938641879385418823A0C50023A0F60056
:103770001386C1879387C1862320160123A00701E2
:10378000032E87200323872283284720032807202E
:103790000327C7222322C50123A265002322160185
:1037A00023A2060123A2E7000F00F00F2385018664
:1037B000B707B4FF23A40702B727B4FF23A4070267
:1037C000B777B4FF23A40702B7A701009387079D2B
:1037D0002326F104B7270200938707AD93058104E0
:1037E00013050109130610002324F104232A010AFA
:1037F0002322010823280104232A0104232C010485
:10380000232E0104EF00D0219386C18637C5ADDE9B
:10381000930701091307010B138AC1889389418813
:103820009384C18713894187232CD1001305F5EEBA
:103830009305000083A607009387470023A4A600F2
:1038400023A6B600E398E7FE130600009305C10423
:1038500013050106EF00D01C37A70200230107BEA5
:10386000A30107BE230007BEB7A70100A30007BE40
:1038700083DC679593870792939C0C0193DC0C0182
:103880000F00F00F03A7870003D7870383D66703D2
:1038900093960601B745000003D7670393D6060148
:1038A000130560001308500013860181938545A617
:1038B00003D7A703631EA718B7A701009387079232
:1038C000B7AA020037080100930D0000130F000093
:1038D000130B000023220100130C0000130D8000C5
:1038E0002326F100938A0ABE3704B9FF3383070108
:1038F0008327C10083A7C703639A07463707B3FF2F
:1039000083270724E39E07FE0F00F00F3707B3FF5E
:1039100083274724E39E07FE0F00F00F3707B3FF0E
:1039200083278724E39E07FE0F00F00FB707B3FF3E
:1039300003A7C724E31E07FE0F00F00F3707B2FFEF
:103940000328872003258722832547200326072075
:10395000930647200327C7222320C900032681019D
:1039600023A0B40023200A0123A0A9002320E600FD
:1039700003A5872083A5872203A6472003A7072046
:1039800083A7C7222322E9000327810123A2C400C1
:103990002322F70083C7A1862322AA0013970701D9
:1039A00093972700B384F40083A7040023A2B900EF
:1039B0003307D70083260700E39EF6FE0F00F00FC3
:1039C00083C7A186B706B2FF139707019397270015
:1039D0003309F90093860620832709003307D700AF
:1039E00083260700E39EF6FE0F00F00FB7A7010045
:1039F0008320C10F0324810F13077000239DE794D8
:103A00008324410F0329010F8329C10E032A810E4C
:103A1000832A410E032B010E832BC10D032C810D34
:103A2000832C410D032D010D832DC10C13050000C6
:103A3000130101106780000023AE07FE23AC07FED0
:103A400023AA07FE23A807FE938707016FF01FB87C
:103A50000F00F00F83D8A70313970801135707012E
:103A600063641831131727003307C70003270700C3
:103A70003307B7006700070037A701001307079255
:103A80000F00F00F8358A703E38C08FE6FF05FE28E
:103A900037A7010093081000638C06060F00F00F93
:103AA00003230794E31C13FF930820002328179394
:103AB000370301003707B9FF8328470083288700B1
:103AC000B3F86800E39A08FEB7A8010013830893CF
:103AD000232A670093880894232E17019308000176
:103AE000232C1701930820002322170137A301007C
:103AF000130730000F00F00F83280394E39CE8FEC7
:103B000037A7010093086000231D17956FF05FDA57
:103B100023281793370301003707B9FF832847008D
:103B200083288700B3F86800E39A08FEB7A801006D
:103B300013830893232A670093880894232E170180
:103B400093080001232C170193082000232217015A
:103B500037A701000F00F00F03230794E31C13FFA6
:103B60009308300023281793370301003707B9FF64
:103B70008328470083288700B3F86800E39A08FE8B
:103B8000B7A8010013830893232A67009388089439
:103B9000232E170193080001232C170193082000FE
:103BA000232217016FF0DFF537A7010023190794CF
:103BB000231B079493081000232E179593083000B9
:103BC000231D1795231C1795370301003707B9FFED
:103BD0008328470083288700B3F86800E39A08FE2B
:103BE000B728B1FF9388081B232E1701B77804006C
:103BF00023221705930840002322170137030100F1
:103C0000B708B9FF03A7480003A788003377670008
:103C1000E31A07FE3707B9FF37030100832847007F
:103C200083288700B3F86800E39A08FEB748B1FF1D
:103C300093888800232E1701B73800009388085214
:103C400023221705930840002322170137030100A0
:103C5000B708B9FF03A7480003A7880033776700B8
:103C6000E31A07FE3707B9FF37030100832847002F
:103C700083288700B3F86800E39A08FEB7A801001C
:103C800093880892232A1701232E17019308000412
:103C9000232C17019308200023221701370301006A
:103CA0003707B9FF8328470083288700B3F86800E7
:103CB000E39A08FEB7F8000093880852232A1701F8
:103CC000232E1701B7280000232C1701930820008A
:103CD0002322170137A70100032E0792370F010097
:103CE00003230792832847923707B9FF832E4700A3
:103CF000832E8700B3FEEE01E39A0EFE137E0EFFC5
:103D0000232AC701137303FF232E670093F808FFCC
:103D1000232C1701930820002322170137030100E9
:103D20003707B9FF8328470083288700B3F8680066
:103D3000E39A08FEB728B1FF9388081B232E1701CA
:103D400023220704930840002322170137030100B0
:103D5000B708B9FF03A7480003A7880033776700B7
:103D6000E31A07FE6FF0DFB46F0000000F00F00FE2
:103D700003C72A0083C70A001377F70F93F7F70FDB
:103D8000630C0D0A630AF70A032781080326810BD7
:103D900083578701A30D07009387070283264400FA
:103DA00083268400B3F60601E39A06FE232AE40084
:103DB000232EC400232CF400930720002322F400B8
:103DC00083C70A00130C1C009387170093F7770032
:103DD000137C7C002380FA0093172C001307010446
:103DE00093870708B387E70083A707FD130DFDFF3F
:103DF000232CF10A83C70A009397270093870708AB
:103E0000B387E70083A707FA2324F1088327440038
:103E100083278400B3F70701E39A07FEB707B4FFCF
:103E200093878743232EF400930700042322F4048E
:103E3000930740002322F400B776B4FF03A7464A55
:103E40001317F7009357F700630A0700330DFD00BF
:103E5000B307F0409397670023ACF6420F00F00FD2
:103E6000B707B4FF83A7474A9397F700638A07040D
:103E70000F00F00F93172B00130701049387070817
:103E8000B387E70083A507FD83D885010F00F00FF6
:103E900083C7A5016386070A130750006382E712F0
:103EA00083274100130B1B00938717002322F10087
:103EB0003707B4FF930700FC137B7B00232CF742EA
:103EC0003787EC3F1307070A93F73D00B387E700F6
:103ED00093972700B387070183A7070003274100B3
:103EE000E308EFA0E39607A0638C0C008347132C34
:103EF0000347332C9387170093F77700E38AE79EF5
:103F00008327440083278400B3F70701E39A07FE61
:103F1000B777B4FF93878743232EF40093070004F9
:103F20002322F404930740002322F40063900C2E14
:103F3000938D1D00130F1F0093FD7D006FF05F9B9D
:103F400003A6050003A74500B707B3FF83A6070430
:103F5000E39E06FE93763B009396A60023ACD70023
:103F6000B74600009386260923AED7009385050245
:103F7000B706001023A0B7009386F60023A6C7005B
:103F8000B376D7001317470023A8D700135787002D
:103F900023AAE70023A6070223A017031307100094
:103FA00023A0E70483A749009387170023A2F90001
:103FB00083A744009387170023A2F4006FF05FEEFD
:103FC000E3900CEE83A70500032581082328F10068
:103FD00083A7450013060002232AF1009307050278
:103FE000232E6102232CE103232E11012324F1004F
:103FF000EF00C02D03C7A186371EB2FF931707013C
:104000009302CE803388570093020E808328C1012B
:10401000232E010133885700B7020010232001032B
:104020001388F20093024E80232201033388570045
:10403000B7020001232401031388F2FF93028E804C
:1040400013060E8423260103130E0E8233885700B5
:1040500023280103832E81003388C70183250101B2
:10406000131E270003254101032F81030323C103EE
:10407000232A01033386C700938F0800B746000048
:10408000330ECA013708010063E8F6119385F6FF85
:10409000B385B800138EF8FF1305000063E6D50062
:1040A00037C5FFFF3375AE0083268100B74F000090
:1040B0003305D500135EEE009306000063E4F501BE
:1040C0009316EE00832E0101B7430000B38FD60193
:1040D000832E4101B3B6DF00B386D6019302000000
:1040E00063E67500B7C2FFFFB3025E02B38212013E
:1040F00083250600E39E05FEB715B2FF9388C580B1
:10410000B388170123A0A800138505803385A70075
:104110002320F50137050010938845801305F5002D
:1041200033F5A600B388170123A0A8009396460094
:104130001385858093D686003385A70093850582F5
:104140002320D500B385B70023A0550093061000A7
:10415000131727003307EA002320D6008326070021
:10416000938616002320D7003707B2FF1307872056
:10417000B387E70003A70700E31ED7FE0F00F00F89
:1041800037A70200834727BE9387170093F777006E
:104190002301F7BE6FF0DFD083220600E39E02FE0C
:1041A0008322C1018323810223A0D2018322010241
:1041B000B38EDE0023A0B20083224102B38FDF4022
:1041C000B372550023A053008323C10293524500CC
:1041D000B3F272008323010323A05300832241031F
:1041E00023A0D200930210002320560083220E0049
:1041F0009382120023205E00B382D500B3B3B200D5
:104200003385A300938502006FF01FE88347132CCA
:104210009387170093F77700A300F32C6FF05FD11B
:10422000B71700009387070283A505001307000056
:104230002306C5022320F5022322F502130680007F
:104240008327450293162700B307F702B387B70009
:10425000B306D50023A0F6009386070223A007002B
:1042600093874700E39CF6FE13071700E31AC7FC89
:10427000832705002324F5026780000093072000B0
:1042800063C0C702635CC00003A705002320E500EC
:104290006316F60083A745002322F500678000001F
:1042A00003A8050083A6450003A785009385C500E4
:1042B0001305C5001306D6FF232A05FF232CD5FEC0
:1042C000232EE5FE6FF0DFFB6F000000B347B50063
:1042D00093F73700B308C5006394070693073000CF
:1042E00063F0C7069377350013070500639A070646
:1042F00013F6C8FFB306E6409307000263CED70863
:1043000093860500930707006378C70203A8060099
:10431000938747009386460023AE07FFE3E8C7FE76
:104320009307F6FFB387E74093F7C7FF93874700EC
:104330003307F700B385F500636817016780000055
:10434000130705006378150583C7050013071700D9
:1043500093851500A30FF7FEE398E8FE6780000041
:1043600083C605001307170093773700A30FD7FE06
:1043700093851500E38E07F683C605001307170023
:1043800093773700A30FD7FE93851500E39A07FCB8
:104390006FF01FF667800000130101FF23268100E4
:1043A0001304000283A3050083A2450083AF8500A8
:1043B00003AFC50083AE050103AE450103A385012C
:1043C00003A8C50183A6050213074702B307E64009
:1043D000232E77FC232057FE2322F7FF2324E7FF19
:1043E0002326D7FF2328C7FF232A67FE232C07FF96
:1043F000232ED7FE93854502E346F4FA9386050003
:10440000930707006378C70203A806009387470055
:104410009386460023AE07FFE3E8C7FE9307F6FF47
:10442000B387E74093F7C7FF938747003307F70049
:10443000B385F500636817010324C100130101016E
:104440006780000083C705001307170093851500D8
:10445000A30FF7FEE382E8FE83C7050013071700EA
:1044600093851500A30FF7FEE39EE8FC6FF0DFFCD9
:02000004FFB04B
:10000000140000004CFEFFFF4CFEFFFF2C00000020
:10001000440100004CFEFFFF5406550656065706E5
:10002000580659065A065B065C065D065E065F06C4
:100030005406550656065706580659065A065B06D4
:080040005C065D065E065F062A
:0400000300003520A4
:00000001FF
